{
  "_format": "hh3-artifact-1",
  "contractName": "PropertyManagement",
  "sourceName": "contracts/property.sol",
  "abi": [
    {
      "anonymous": false,
      "inputs": [
        {
          "indexed": false,
          "internalType": "uint256",
          "name": "propertyId",
          "type": "uint256"
        },
        {
          "indexed": false,
          "internalType": "uint256",
          "name": "price",
          "type": "uint256"
        }
      ],
      "name": "PropertyForSale",
      "type": "event"
    },
    {
      "anonymous": false,
      "inputs": [
        {
          "indexed": false,
          "internalType": "uint256",
          "name": "propertyId",
          "type": "uint256"
        },
        {
          "indexed": false,
          "internalType": "address",
          "name": "owner",
          "type": "address"
        },
        {
          "indexed": false,
          "internalType": "string",
          "name": "name",
          "type": "string"
        },
        {
          "indexed": false,
          "internalType": "string",
          "name": "location",
          "type": "string"
        },
        {
          "indexed": false,
          "internalType": "string",
          "name": "ipfsHash",
          "type": "string"
        },
        {
          "indexed": false,
          "internalType": "uint256",
          "name": "price",
          "type": "uint256"
        }
      ],
      "name": "PropertyRegistered",
      "type": "event"
    },
    {
      "anonymous": false,
      "inputs": [
        {
          "indexed": false,
          "internalType": "uint256",
          "name": "propertyId",
          "type": "uint256"
        },
        {
          "indexed": false,
          "internalType": "address",
          "name": "buyer",
          "type": "address"
        },
        {
          "indexed": false,
          "internalType": "uint256",
          "name": "price",
          "type": "uint256"
        }
      ],
      "name": "PropertySold",
      "type": "event"
    },
    {
      "anonymous": false,
      "inputs": [
        {
          "indexed": false,
          "internalType": "uint256",
          "name": "propertyId",
          "type": "uint256"
        },
        {
          "indexed": false,
          "internalType": "address",
          "name": "from",
          "type": "address"
        },
        {
          "indexed": false,
          "internalType": "address",
          "name": "to",
          "type": "address"
        }
      ],
      "name": "PropertyTransferred",
      "type": "event"
    },
    {
      "inputs": [
        {
          "internalType": "uint256",
          "name": "_id",
          "type": "uint256"
        }
      ],
      "name": "buyProperty",
      "outputs": [],
      "stateMutability": "payable",
      "type": "function"
    },
    {
      "inputs": [
        {
          "internalType": "uint256",
          "name": "_propertyId",
          "type": "uint256"
        }
      ],
      "name": "getProperty",
      "outputs": [
        {
          "internalType": "uint256",
          "name": "",
          "type": "uint256"
        },
        {
          "internalType": "address",
          "name": "",
          "type": "address"
        },
        {
          "internalType": "string",
          "name": "",
          "type": "string"
        },
        {
          "internalType": "string",
          "name": "",
          "type": "string"
        },
        {
          "internalType": "string",
          "name": "",
          "type": "string"
        },
        {
          "internalType": "uint256",
          "name": "",
          "type": "uint256"
        },
        {
          "internalType": "bool",
          "name": "",
          "type": "bool"
        }
      ],
      "stateMutability": "view",
      "type": "function"
    },
    {
      "inputs": [
        {
          "internalType": "uint256",
          "name": "",
          "type": "uint256"
        }
      ],
      "name": "properties",
      "outputs": [
        {
          "internalType": "uint256",
          "name": "propertyId",
          "type": "uint256"
        },
        {
          "internalType": "address",
          "name": "owner",
          "type": "address"
        },
        {
          "internalType": "string",
          "name": "name",
          "type": "string"
        },
        {
          "internalType": "string",
          "name": "location",
          "type": "string"
        },
        {
          "internalType": "string",
          "name": "ipfsHash",
          "type": "string"
        },
        {
          "internalType": "uint256",
          "name": "price",
          "type": "uint256"
        },
        {
          "internalType": "bool",
          "name": "isForSale",
          "type": "bool"
        }
      ],
      "stateMutability": "view",
      "type": "function"
    },
    {
      "inputs": [],
      "name": "propertyCount",
      "outputs": [
        {
          "internalType": "uint256",
          "name": "",
          "type": "uint256"
        }
      ],
      "stateMutability": "view",
      "type": "function"
    },
    {
      "inputs": [
        {
          "internalType": "uint256",
          "name": "_propertyId",
          "type": "uint256"
        },
        {
          "internalType": "uint256",
          "name": "_price",
          "type": "uint256"
        }
      ],
      "name": "putPropertyForSale",
      "outputs": [],
      "stateMutability": "nonpayable",
      "type": "function"
    },
    {
      "inputs": [
        {
          "internalType": "string",
          "name": "_name",
          "type": "string"
        },
        {
          "internalType": "string",
          "name": "_location",
          "type": "string"
        },
        {
          "internalType": "string",
          "name": "_ipfsHash",
          "type": "string"
        },
        {
          "internalType": "uint256",
          "name": "_price",
          "type": "uint256"
        }
      ],
      "name": "registerProperty",
      "outputs": [],
      "stateMutability": "nonpayable",
      "type": "function"
    }
  ],
  "bytecode": "0x6080604052348015600e575f5ffd5b50610eff8061001c5f395ff3fe608060405260043610610054575f3560e01c806332665ffb146100585780636d0b1e87146100935780636fa830a6146100b4578063c361a335146100c7578063efbf13a7146100e9578063f7b1080814610108575b5f5ffd5b348015610063575f5ffd5b50610077610072366004610afe565b610127565b60405161008a9796959493929190610b43565b60405180910390f35b34801561009e575f5ffd5b506100b26100ad366004610c4d565b6103bd565b005b6100b26100c2366004610afe565b610539565b3480156100d2575f5ffd5b506100db5f5481565b60405190815260200161008a565b3480156100f4575f5ffd5b506100b2610103366004610ce3565b6107d1565b348015610113575f5ffd5b50610077610122366004610afe565b610923565b5f5f60608060605f5f5f8811801561014057505f548811155b6101865760405162461bcd60e51b8152602060048201526012602482015271141c9bdc195c9d1e481b9bdd08199bdd5b9960721b60448201526064015b60405180910390fd5b5f888152600160208181526040808420815160e08101835281548152938101546001600160a01b031692840192909252600282018054918401916101c990610d03565b80601f01602080910402602001604051908101604052809291908181526020018280546101f590610d03565b80156102405780601f1061021757610100808354040283529160200191610240565b820191905f5260205f20905b81548152906001019060200180831161022357829003601f168201915b5050505050815260200160038201805461025990610d03565b80601f016020809104026020016040519081016040528092919081815260200182805461028590610d03565b80156102d05780601f106102a7576101008083540402835291602001916102d0565b820191905f5260205f20905b8154815290600101906020018083116102b357829003601f168201915b505050505081526020016004820180546102e990610d03565b80601f016020809104026020016040519081016040528092919081815260200182805461031590610d03565b80156103605780601f1061033757610100808354040283529160200191610360565b820191905f5260205f20905b81548152906001019060200180831161034357829003601f168201915b5050509183525050600582015460208083019190915260069092015460ff161515604091820152825191830151908301516060840151608085015160a086015160c090960151949f939e50919c509a509850919650945092505050565b5f811161040c5760405162461bcd60e51b815260206004820152601f60248201527f5072696365206d7573742062652067726561746572207468616e207a65726f00604482015260640161017d565b5f8054908061041a83610d3b565b90915550506040805160e0810182525f80548083523360208085019182528486018a8152606086018a90526080860189905260a0860188905260c086018590529284526001908190529490922083518155915193820180546001600160a01b0319166001600160a01b0390951694909417909355915190919060028201906104a29082610dab565b50606082015160038201906104b79082610dab565b50608082015160048201906104cc9082610dab565b5060a0820151600582015560c0909101516006909101805460ff19169115159190911790555f546040517feb6e6d731e0d161dc9132e7163c975ba9f560b31e69497de9120ba63de1fcd3d9161052b9133908890889088908890610e66565b60405180910390a150505050565b5f8111801561054957505f548111155b61058a5760405162461bcd60e51b8152602060048201526012602482015271141c9bdc195c9d1e481b9bdd08199bdd5b9960721b604482015260640161017d565b5f818152600160205260409020600681015460ff166105e35760405162461bcd60e51b815260206004820152601560248201527450726f7065727479206e6f7420666f722073616c6560581b604482015260640161017d565b60018101546001600160a01b0316330361063f5760405162461bcd60e51b815260206004820152601d60248201527f4f776e65722063616e6e6f7420627579206f776e2070726f7065727479000000604482015260640161017d565b806005015434146106895760405162461bcd60e51b8152602060048201526014602482015273125b98dbdc9c9958dd0811551208185b5bdd5b9d60621b604482015260640161017d565b60018101546040516001600160a01b03909116905f90829034908381818185875af1925050503d805f81146106d9576040519150601f19603f3d011682016040523d82523d5f602084013e6106de565b606091505b50509050806107255760405162461bcd60e51b8152602060048201526013602482015272115512081d1c985b9cd9995c8819985a5b1959606a1b604482015260640161017d565b6001830180546001600160a01b0319163390811790915560068401805460ff1916905560408051868152602081019290925234908201527ff17a6666765db393a6218bb324c4de5cc60c9ee3b981bd102ba416effc13b8959060600160405180910390a1604080518581526001600160a01b038416602082015233918101919091527f2231fc8bc2c20e26d85d66dc7f13a6b6d535c86d2a4d678bb2de61f5b71360839060600161052b565b815f811180156107e257505f548111155b6108215760405162461bcd60e51b815260206004820152601060248201526f496e76616c69642070726f706572747960801b604482015260640161017d565b5f81815260016020819052604090912001546001600160a01b031633146108825760405162461bcd60e51b81526020600482015260156024820152742cb7ba9030b932903737ba103a34329037bbb732b960591b604482015260640161017d565b5f82116108c15760405162461bcd60e51b815260206004820152600d60248201526c496e76616c696420707269636560981b604482015260640161017d565b5f8381526001602081815260409283902060058101869055600601805460ff191690921790915581518581529081018490527fb93a89f5cf165bd77698da1ad4f37628e5d3470ed708d3c613c3db245e60d7a5910160405180910390a1505050565b600160208190525f91825260409091208054918101546002820180546001600160a01b03909216929161095590610d03565b80601f016020809104026020016040519081016040528092919081815260200182805461098190610d03565b80156109cc5780601f106109a3576101008083540402835291602001916109cc565b820191905f5260205f20905b8154815290600101906020018083116109af57829003601f168201915b5050505050908060030180546109e190610d03565b80601f0160208091040260200160405190810160405280929190818152602001828054610a0d90610d03565b8015610a585780601f10610a2f57610100808354040283529160200191610a58565b820191905f5260205f20905b815481529060010190602001808311610a3b57829003601f168201915b505050505090806004018054610a6d90610d03565b80601f0160208091040260200160405190810160405280929190818152602001828054610a9990610d03565b8015610ae45780601f10610abb57610100808354040283529160200191610ae4565b820191905f5260205f20905b815481529060010190602001808311610ac757829003601f168201915b50505050600583015460069093015491929160ff16905087565b5f60208284031215610b0e575f5ffd5b5035919050565b5f81518084528060208401602086015e5f602082860101526020601f19601f83011685010191505092915050565b8781526001600160a01b038716602082015260e0604082018190525f90610b6c90830188610b15565b8281036060840152610b7e8188610b15565b90508281036080840152610b928187610b15565b60a0840195909552505090151560c09091015295945050505050565b634e487b7160e01b5f52604160045260245ffd5b5f82601f830112610bd1575f5ffd5b813567ffffffffffffffff811115610beb57610beb610bae565b604051601f8201601f19908116603f0116810167ffffffffffffffff81118282101715610c1a57610c1a610bae565b604052818152838201602001851015610c31575f5ffd5b816020850160208301375f918101602001919091529392505050565b5f5f5f5f60808587031215610c60575f5ffd5b843567ffffffffffffffff811115610c76575f5ffd5b610c8287828801610bc2565b945050602085013567ffffffffffffffff811115610c9e575f5ffd5b610caa87828801610bc2565b935050604085013567ffffffffffffffff811115610cc6575f5ffd5b610cd287828801610bc2565b949793965093946060013593505050565b5f5f60408385031215610cf4575f5ffd5b50508035926020909101359150565b600181811c90821680610d1757607f821691505b602082108103610d3557634e487b7160e01b5f52602260045260245ffd5b50919050565b5f60018201610d5857634e487b7160e01b5f52601160045260245ffd5b5060010190565b601f821115610da657805f5260205f20601f840160051c81016020851015610d845750805b601f840160051c820191505b81811015610da3575f8155600101610d90565b50505b505050565b815167ffffffffffffffff811115610dc557610dc5610bae565b610dd981610dd38454610d03565b84610d5f565b6020601f821160018114610e0b575f8315610df45750848201515b5f19600385901b1c1916600184901b178455610da3565b5f84815260208120601f198516915b82811015610e3a5787850151825560209485019460019092019101610e1a565b5084821015610e5757868401515f19600387901b60f8161c191681555b50505050600190811b01905550565b8681526001600160a01b038616602082015260c0604082018190525f90610e8f90830187610b15565b8281036060840152610ea18187610b15565b90508281036080840152610eb58186610b15565b9150508260a083015297965050505050505056fea264697066735822122046cf7398aec9235368b9d77361499f46be0caec556b9613a7828b6a85880501664736f6c634300081c0033",
  "linkReferences": {},
  "deployedLinkReferences": {},
  "immutableReferences": {},
  "inputSourceName": "project/contracts/property.sol",
  "buildInfoId": "solc-0_8_28-e0c272c1ab2bc25260645b6520621531eaefcd8c"
}